:020000040800F2
:1000000068D6002029E90008691600086B16000868
:100010006F1600087316000877160008000000002D
:1000200000000000000000000000000015020008B1
:100030007D16000800000000B50200081903000842
:1000400043E9000843E9000843E9000843E90008E0
:1000500043E9000843E900087F1600089F160008DE
:10006000DB160008331700083517000843E90008BD
:1000700043E90008F13B000843E9000843E90008B0
:10008000D53B000843E9000843E9000843E90008BC
:1000900043E9000843E9000843E900087117000834
:1000A00043E9000843E9000843E9000843E9000880
:1000B00043E9000843E9000843E9000843E9000870
:1000C00043E9000843E9000843E9000843E9000860
:1000D00043E9000843E9000843E9000843E9000850
:1000E0007918000843E9000843E9000843E90008DB
:1000F00043E9000843E9000843E9000843E9000830
:1001000043E9000843E9000843E90008BF3B000851
:10011000574F000843E9000843E90008E5190008C3
:1001200043E9000843E9000843E9000843E90008FF
:1001300043E90008000000000000000043E9000857
:1001400043E9000843E9000843E90008ED260008F8
:1001500043E9000843E9000843E9000843E90008CF
:1001600043E9000843E9000843E9000843E90008BF
:1001700043E90008AD28000800000000000000006E
:1001800043E9000843E90008DFF81CD00EF0A8FF9F
:1001900010F0E4FF0021034811F010F910F0F0FF17
:1001A000FEE70000900F002068D6002080F3098849
:1001B0007047EFF309807047684680F30988044868
:1001C0000078C00714BF0220032080F31488704712
:1001D000F42C0108DFF818C0EFF305831B0618BFE5
:1001E0006047EFF31483DB0708BF604700DF704709
:1001F00039150108DFF818C0EFF305831B0618BF97
:100200006047EFF31483DB0708BF604700DF7047E8
:10021000C9170108EFF30980816911F8021C99BB25
:1002200090E80F1010B5E047BDE81040EFF3098CDF
:100230008CE807001C4B93E80600914208BF70470A
:1002400081B11EF0100F06BF2CED108A0120002096
:1002500081F825002CE9F00FC1F828C00CB411F08A
:1002600009FF0CBC1A60D2F828C0BCE8F00F92F865
:10027000250000281ABFBCEC108A6FF0120E6FF038
:10028000020E8CF30988704710B5084A1268914233
:1002900009D8074C54F8214090E80F10A047EFF31D
:1002A000098C8CE80F0010BDE010002064F10008FC
:1002B00064F1000810B511F037FDBDE81040154B92
:1002C00093E80600914208BF7047EFF3098C1EF0D7
:1002D000100F06BF2CED108A0120002081F82500A8
:1002E0002CE9F00FC1F828C00CB411F0C3FE0CBC0F
:1002F0001A60D2F828C0BCE8F00F92F82500002858
:100300001ABFBCEC108A6FF0120E6FF0020E8CF365
:1003100009887047E010002010B511F073FFCCE79A
:1003200010B511F0D1F811F06DFFC6E770B50546B4
:100330004FF0FF31286810F0E1FF0646812E0ED005
:1003400003DC3EB1802E13D10CE0822E0DD0C12EE5
:100350000ED101E000240EE06FF001040BE04FF03D
:10036000FF3408E04FF0FF3405E04FF0FF3402E0C7
:100370004FF0FF3400BF00BF204670BD30B585B0E0
:1003800004460D464FF0FF31286810F065FF8DE8F8
:1003900007000098202804D10198049000200390C1
:1003A00003E000200490401E0390DDE90301C4E94E
:1003B000000105B030BD2DE9F04105460E4631463D
:1003C000284611F04BF807460FB1002401E04FF02A
:1003D000FF342046BDE8F08110B501F020FC01F0AB
:1003E00009FB10BD10B52748007800F0010018B1D6
:1003F000002001F02DFB02E0002001F036FB214837
:10040000007800F00200022803D1012001F020FB57
:1004100002E0012001F029FB1A48007800F00400F6
:10042000042803D1022001F013FB02E0022001F0B6
:100430001CFB10BD10B50020134908600A460121BD
:10044000124810F0F1FF124908600846006838B100
:100450004FF4FA710E480068FFF7ADFF044600BF85
:10046000022208494FF4204001F0BDF809494FF439
:10047000204001F0DCF810BD10B50446032001F067
:1004800001FB10BD0800002004000020142B01080F
:1004900000000020E503000820B5002500217F486A
:1004A00010F0B4FE7E49086004B9AD1E00217D48FD
:1004B00010F0ACFE7A4948600CB96FF001050021DC
:1004C000794810F0A3FE764988600846806808B92C
:1004D0006FF00105754810F0EDFE7549086008469B
:1004E000006808B96FF00205284620BD10B5044623
:1004F000704800EB8401704810F060FF6F4941F8CC
:10050000240010BD08B580460026D8F80040C4EB92
:10051000C4016B4A52F821008047C4EBC40068490B
:1005200001EB80000021826901209047002812DA47
:10053000C4EBC401624A02EB810148688047E0B223
:1005400001F0F3FBE0B200F0C8FE5C4951F8240072
:1005500010F058FF09E0574800EB8401594810F0AB
:100560002DFF594941F8240000BF52E0C4EBC401FB
:10057000534A02EB810188688047002849D0C4EBC8
:10058000C4014F4A02EB8101C86880478246504649
:1005900010F088FC054695B3C4EBC400484901EB54
:1005A000800051460269284690470021474800686C
:1005B00010F01CFE064616B3E0B200F07FFE40F0DD
:1005C0000109E3B2524629463046CDF8009000F0CA
:1005D000DDFC3748FFF7AAFE0746384617F1020F41
:1005E0000ED0B0F1FF3F0CD060B9314637480068FB
:1005F00010F03DFE2E48006810F074FE03E003E0AA
:1006000001E000E000BF00BF1DB1284610F01CFC57
:100610000025ABE71FB580460027D8F80040E0B2C0
:10062000022101F051FBE0B200F057FE34E01C481B
:1006300000EB84016846FFF7A1FEDDE90001CDE98A
:100640000201029840BB039F788800F10C063046F7
:1006500010F028FC0546FDB1E0B200F02FFE814607
:10066000E3B2324629460090384600F08FFC064639
:10067000C4EBC400124901EB8000314642692846B0
:100680009047074951F82400394610F0D7FD1DB1B5
:10069000284610F0D9FB0025C9E700001C2B0108F3
:1006A00038110020282B0108342B0108402B0108A9
:1006B0002400002028000020542B01082C110020C9
:1006C000882C0108442B010820110020380000204C
:1006D00070B5002421E0204601F0EBFAC8B10128F2
:1006E00004D0022806D0032814D104E02046FFF7E6
:1006F000FDFE0FE00EE04A4951F8240010F082FEA2
:100700000546C4EBC401474A02EB810148688047B3
:1007100000E000BF00BF601CC4B2032CDBDB70BD77
:1007200020B5002500F0D1F900213F4810F06EFD02
:100730003E49086004B9AD1E00213D4810F03EFE60
:100740003C4908600CB94FF0FF35FFF7C1FF284660
:1007500020BD8EB0002500240027002602A800F04E
:10076000E7FA07A800F0E4FA58E030496846FFF7D6
:1007700005FEDDE90001CDE90C010C9858B90D9F8B
:10078000394602A800F01BFD054627B13946274827
:10079000006810F053FD07A800F0ABF90446FFF71E
:1007A00097FFE0B200F099FDBDF81E00002818DDAB
:1007B000002C16DB032C14DA1F4951F82400002109
:1007C00010F014FD064666B107A9304600F0A1FC02
:1007D000194951F82400314610F049FD07A800F0EE
:1007E000A7FABDF80A00002818DD002D16DB032D3E
:1007F00014DA114951F82500002110F0F7FC0646E3
:1008000066B102A9304600F084FC0B4951F825007E
:10081000314610F02CFD02A800F08AFAA5E700008E
:100820002C110020882C0108642B010838000020BE
:10083000702B0108340000203811002010B5FFF79C
:10084000CBFD10F08BFCFFF727FEFFF769FFFFF7EA
:10085000F1FD10F095FC002010BD10B500240EE055
:10086000204600F02BFD40B9204600F04AFD01284B
:1008700003D10121204601F027FA601CC4B2032CE9
:10088000EEDB002010BD01464FF0FF307047002026
:1008900070470020704701464FF0FF30704700203E
:1008A00070470020704701464FF0FF30704700202E
:1008B00070470020704701464FF0FF30704700201E
:1008C000704770470020704701464FF0FF30704777
:1008D0000020704710B500F02BFD00F0ADF90020AE
:1008E00010BD70B505464FF0FF34032000F08AF8C4
:1008F000204670BD002070470020704701464FF031
:10090000FF307047002070472DE9F04780460E46C3
:100910001746994644464FF0000A09F00100E0B935
:10092000354630782080208871784FF47F4202EA83
:10093000012108432080B078A070ED1CF81E10F053
:10094000B1FA6060606828B1FA1E294660680EF04E
:1009500084FB1BE04FF0FF3A18E035466DB120787C
:1009600028702088000A6870A078A870ED1C3A46AC
:10097000284661680EF071FB01E04FF0FF3A6068B5
:1009800020B1606810F060FA002060605046BDE859
:10099000F0872DE9FF4705460E461746B14600236E
:1009A0003A46494602A8FFF7AFFFF81E00900398A9
:1009B0000190BDF8080000F0D8FC8046B8F1010FA6
:1009C0001BD1BDF8080001AB6A46991D00F06DFD12
:1009D0008046B8F1000F10D1019803900098C01C18
:1009E00010F060FA04460123214602A8009AFFF79E
:1009F0008BFF2C600098C01C0090009804B0BDE8EC
:100A0000F087000070B504460025814804708148D5
:100A10000078844257D07F480078072821D2DFE849
:100A200000F004080C1014181C00FFF763FF0546C3
:100A300018E0FFF734FF054614E0FFF763FF0546B3
:100A400010E0FFF745FF05460CE0FFF720FF0546E5
:100A500008E0FFF72CFF054604E0FFF730FF0546EE
:100A600000E000BF00BF5DBB072C21D2DFE804F02F
:100A700004080C1014181C00FFF72CFF054618E0A2
:100A8000FFF707FF054614E0FFF736FF054610E0C5
:100A9000FFF718FF05460CE0FFF7DFFE054608E00C
:100AA000FFF7FFFE054604E0FFF703FF054600E001
:100AB00000BF00BF2DB1FFF704FF062055490870A5
:100AC00001E054480470284670BD10B50720514914
:100AD00008700020FFF796FF01224E494FF4206076
:100AE00000F081FD01224A4940F60A2000F07BFD1A
:100AF00010BD38B504464FF0FF35009445480078E6
:100B0000072828D2DFE800F004090E13181D220080
:100B10006846FFF7E6FE05461EE06846FFF7BBFEA7
:100B2000054619E06846FFF7E9FE054614E0684609
:100B3000FFF7CAFE05460FE06846FFF7A4FE05462C
:100B40000AE06846FFF7AFFE054605E06846FFF796
:100B5000B2FE054600E000BF00BF284638BD2D4864
:100B60000078704770B5044615462246002003F011
:100B7000010626B90E7816704E78567003E0167886
:100B80000E7056784E7070BD2DE9F84305460E463E
:100B90001746B04600233A4641466846FFF7E2FF53
:100BA0009DF8000000F0800078BB9DF80100FF2850
:100BB00007D19DF8001001F07F00FFF723FF814669
:100BC00016E09DF8010000F079FB022808D19DF89D
:100BD000002002F07F019DF8010001F075F807E0A8
:100BE0009DF8002002F07F019DF8010000F091FBCC
:100BF000022010F057F904460648007840F08001C2
:100C000021709DF8011061702C600220BDE8F8830E
:100C1000450000204400002000200AE0FA4909783D
:100C2000014400EB8002F94B03EB82021171411C7D
:100C3000C8B20828F2DB704770B5F4480079C010DC
:100C4000F14908700320F249087000240AE02046A8
:100C500001F02AF804EB8401EC4A02EB810188746C
:100C6000601CC4B2EA4800788442F0DB0122E64905
:100C70004FF4706000F0B7FCAFF263014FF47060A6
:100C800000F0D5FC0122E2494FF4716000F0ABFCAA
:100C9000002446E004EB8402DC4B03EB8201621C7F
:100CA0001207100C012200F09EFC04EB8403D74DC8
:100CB00005EB83031A7C04EB840305EB8303991D86
:100CC000631C1B035B1C98B200F08DFC04EB8402D8
:100CD0002B4603EB8202511D621C1203921C90B240
:100CE000012200F080FC04EB84022B4603EB82021D
:100CF00002F11201621C1203121D90B2012200F0D7
:100D000072FC04EB84022B4603EB820202F1110118
:100D1000621C1203D21C90B2012200F064FC601C21
:100D2000C4B2BB4800788442B4DBFFF775FF70BDE6
:100D30000021017041704180017141718160018227
:100D4000704730B502460B460021481E0C2B6FD26F
:100D5000DFE803F0061D33495F778EA4BCD3E9F9C1
:100D60000FE001EB8104A94D15F82440944206D10F
:100D700001EB810405EB8404648820B205E04C1C7F
:100D8000E1B2A34C2478A142EBDB00BFFCE00EE013
:100D900001EB81049D4D15F82440944205D101EBEF
:100DA000810405EB8404207905E04C1CE1B2984CE9
:100DB0002478A142ECDB00BFE6E00EE001EB810409
:100DC000924D15F82440944205D101EB810405EBC6
:100DD0008404607905E04C1CE1B28D4C2478A1427A
:100DE000ECDB00BFD0E00EE001EB8104874D05EBAA
:100DF00084046488944204D101EB810415F8240032
:100E000005E04C1CE1B2824C2478A142ECDB00BF2F
:100E1000BAE010E001EB81047C4D05EB84046488AA
:100E2000944206D101EB810405EB8404207906E0AD
:100E3000A9E04C1CE1B2764C2478A142EADB00BF69
:100E4000A2E00FE001EB8104704D05EB840464889F
:100E5000944205D101EB810405EB8404607905E03F
:100E60004C1CE1B26A4C2478A142EBDB00BF8BE062
:100E70000EE001EB8104654D05EB84042479944276
:100E800004D101EB810415F8240005E04C1CE1B20B
:100E90005F4C2478A142ECDB00BF75E010E001EB71
:100EA00081045A4D05EB84042479944206D101EB68
:100EB000810405EB8404648820B205E04C1CE1B297
:100EC000534C2478A142EADB00BF5DE00FE001EB68
:100ED00081044E4D05EB84042479944205D101EB45
:100EE000810405EB8404607905E04C1CE1B2484CB8
:100EF0002478A142EBDB00BF46E00EE001EB810469
:100F0000424D05EB84046479944204D101EB8104E1
:100F100015F8240005E04C1CE1B23D4C2478A142B8
:100F2000ECDB00BF30E011E001EB8104374D05EB55
:100F300084046479944207D101EB810405EB8404B5
:100F4000648820B206E007E04C1CE1B2304C247803
:100F5000A142E9DB00BF17E00FE001EB81042B4D5C
:100F600005EB84046479944205D101EB810405EB1F
:100F70008404207905E04C1CE1B2254C2478A14280
:100F8000EBDB00BF00E000BF00BF30BD2DE9F84F34
:100F900082468B4617469846DDF8289000975446BF
:100FA0005D4609F00100002865D009F00200002824
:100FB0003CD002285ED115F8010B207015F8010B0A
:100FC0006070287869784FF47F4202EA0121084472
:100FD0006080AD1C15F8010B207115F8010B6071D4
:100FE00004F10806286830602D1D60880FF05AFF54
:100FF000E060E06870B1E6686288294630460EF02D
:101000002CF86088054408E0A1000020460000207C
:10101000A00000204FF0FF300090287869784FF44E
:101020007F4202EA01210843208223E00020607011
:1010300067806071A06002214046FFF782FEF821C0
:1010400001EAC0002070207808F0070108432070F2
:1010500001214046FFF775FE207138460FF022FF50
:10106000E060E6683A46294630460DF0F6FF00207B
:10107000208200BF4AE009F00200002835D0022893
:1010800043D12078287060786870A078A870608854
:10109000000AE8702079287160796871207AA87157
:1010A0002089000AE871A068000C2872A068000E70
:1010B00068720A35E06840B1E668628831462846C1
:1010C0000DF0CBFF6088054402E04FF0FF30009048
:1010D000207C2870208A000A6870E06820B1E068EF
:1010E0000FF0B2FE0020E0600FE0E6686288314653
:1010F00028460DF0B2FFE06820B1E0680FF0A4FED2
:101100000020E0606088009000BF00BF0098BDE84C
:10111000F88F2DE9F04105460E464FF000083446A1
:101120002F462078387060787870608878802079D1
:101130003871A068B86060797871208A38826088D8
:101140000FF0B0FEF860F86820B16288E168F868D6
:101150000DF083FFE06820B1E0680FF075FE00201D
:10116000E0604046BDE8F08130B503460022501EE5
:1011700000211DE001E0541CE2B201EB8104684D46
:1011800005EB4404A45CFF2C06D001EB810405EBC5
:101190004404A45C9C42EED101EB8104604D05EB5C
:1011A0004404A45C9C4200D104E000224C1CE1B247
:1011B0000329DFDB00BF032900DA084630BD2DE933
:1011C000F04780460F464FF0FF3A3C4645462078B0
:1011D0004FEAE00953480078814554D1607820B146
:1011E00001282CD002284CD107E021462846FFF7E1
:1011F00090FF207800F0070A44E0628805F10C00B7
:10120000E168FFF7C6FB0646207928700220687067
:1012100044480078F82101EAC00028712879217833
:1012200001F007010843287160796871A068A8601F
:101230006E8000202882207800F0070A22E0628871
:1012400005F10C00E168FFF79FFC06462079287045
:101250000120687033480078F82101EAC000287145
:101260002879217801F007010843287160796871B5
:10127000A068A8606E8000202882207800F0070A0D
:1012800000E000BF0AE04846FFF76EFF82460AF121
:10129000010018B121462846FFF73BFFE06820B166
:1012A000E0680FF0D1FD0020E0605046BDE8F08717
:1012B0000246002070471C4800787047014601EB49
:1012C00081001A4A02EB8000407C704700EB8002EC
:1012D000164B03EB82025174704710B5044604EBC1
:1012E0008400124901EB8000407C022808D120468E
:1012F00000F0DAFC04EB84010C4A02EB81018874F3
:1013000010BD014601EB8100084A02EB8000807CA1
:10131000704700EB8002054B03EB8202917470472B
:1013200082000020A1000020A00000204600002034
:101330002C20CB490870704770B503460A464FF021
:10134000FF30002102B114460BE001EBC105C54E90
:1013500036F825509D4202D12180012003E04D1C2A
:10136000A9B26929F1D300BF70BD10B504460021B0
:101370002046FFF7E1FF10BD2DE9F04104460F467E
:1013800015464FF0020804EBC401B64A02EB810196
:10139000087E0FF087FD064626B96FF00108002091
:1013A000286015E03E6004EBC400AE4B03EB800008
:1013B000027E04EBC40003EB8000C16930460DF0EF
:1013C0004CFE04EBC400A74901EB8000007E2860BE
:1013D0004046BDE8F081014601EBC100A14A02EBA5
:1013E0008000407E70472DE9F047044688469146CC
:1013F0001E464FF0030A04EBC4009A4901EB80003B
:10140000C08A871C04EBC40001EB8000407E88F892
:10141000000038460FF046FD054625B96FF0010A79
:10142000002030601AE0C9F800500020687004EB1A
:10143000C4008C4901EB8000007E2870AD1C04EBD9
:10144000C4000B4603EB8000C28A04EBC40003EB2C
:101450008000811C28460DF000FE37605046BDE834
:10146000F08710B5044604EBC4007E4901EB800010
:10147000006A30B104EBC4017A4A02EB8101086AC8
:10148000804710BD2DE9F04104460D4616462F4613
:1014900004EBC401734A02EB81013246C869394644
:1014A0000DF0DBFD0420BDE8F0812DE9FF5F8346F0
:1014B000884615461E46346898F800A001A958468B
:1014C000FFF73AFF07460AF02000A0B1BDF804007C
:1014D000FFF781FF00F0200068B12146BDF804004D
:1014E0002A68FFF7CFFF0746042F04D1BDF8040098
:1014F000FFF7B7FF00271CB120460FF0A5FC002422
:10150000002028600AF0400060B3BDF80400FFF737
:1015100062FF00F0400028B302AB03AA6946BDF8A1
:101520000400FFF760FF0746032F14D19DF8000069
:1015300088F8000002980FF0B5FC04464CB1204634
:10154000DDE902210DF089FD346002982860002752
:1015500001E06FF00107039820B103980FF074FCCD
:10156000002003900AF01000C8B3BDF80400FFF794
:1015700032FF00F0100090B3DDF8089002AA03A932
:10158000BDF80400FFF7F8FE0746022F20D184B112
:10159000BDF8040000EBC000324A02EB8000007E80
:1015A00000EB090120460FF091FF044634604C44E3
:1015B00004E002980FF076FC044634602046DDE932
:1015C00002210DF04AFD286802990844286000278E
:1015D000039820B103980FF037FC002003903846A1
:1015E00004B0BDE8F09F2DE9F84307460D461646C6
:1015F00069463846FFF7A0FE8046B8F1010F11D1C9
:10160000BDF8000000EBC000164901EB8000C56189
:10161000BDF8001001EBC101124A02EB81010E7608
:10162000002401E04FF0FF342046BDE8F883F8B510
:1016300006460D4669463046FFF77EFE0746012FF7
:1016400009D1BDF8000000EBC000064901EB8000A5
:101650000562002401E04FF0FF342046F8BD000091
:10166000A4000020A8000020704700BFFEE700BFD4
:10167000FEE700BFFEE700BFFEE77047704710B50A
:10168000DA48006800F0010040B10120D749086045
:10169000D748406810B1D6494868804710BD10B59A
:1016A000D248006800F0010040B10120CF49086035
:1016B000CF48006810B1CE4908688047CB48006821
:1016C00000F0020040B10220C8490860C848406EDE
:1016D00010B1C749486E804710BD10B5C3480068B7
:1016E00000F0040040B10420C0490860C048006A0E
:1016F00010B1BF49086A8047BC48006800F0040088
:1017000040B10420B9490860B948806B10B1B849AC
:10171000886B8047B548006800F0040040B10420A1
:10172000B2490860B248006D10B1B149086D8047F8
:1017300010BD704710B5AD48006800F0100040B112
:101740001020AA490860AA48006C10B1A849086C8A
:101750008047A648006800F0100040B11020A3495F
:101760000860A348806E10B1A149886E804710BD03
:1017700010B59E48006800F4807048B14FF4807046
:101780009A4908609A48C06810B19949C86880476A
:101790009648006800F4007048B14FF40070934917
:1017A00008609348406910B19149486980478F4863
:1017B000006800F0200040B120208C4908608C486F
:1017C000C06B10B18A49C86B80478848006800F434
:1017D000807048B14FF48070844908608448406C40
:1017E00010B18349486C80478048006800F0800051
:1017F00040B180207D4908607D48406D10B17C4932
:10180000486D80477948006800F0400040B14020B2
:10181000764908607648806D10B17549886D8047BB
:101820007248006800F4007048B14FF400706F49CE
:1018300008606F48C06D10B16D49C86D80476B4836
:10184000006800F0400040B14020684908606848E6
:10185000C06E10B16649C86E80476448006800F0E9
:10186000800040B18020614908606148006F10B17C
:101870005F49086F804710BD10B55C48006800F4F0
:10188000804048B14FF4804058490860584880680B
:1018900010B15749886880475448006800F40040F8
:1018A00048B14FF40040514908605148006910B1F7
:1018B0004F49086980474D48006800F4806048B18E
:1018C0004FF48060494908604948806910B148492F
:1018D000886980474548006800F4805048B14FF45B
:1018E0008050424908604248C06910B14049C86907
:1018F00080473E48006800F4006048B14FF4006043
:101900003A4908603A48406A10B13949486A804704
:101910003648006800F4004048B14FF400403349B5
:1019200008603348806A10B13149886A80472F487F
:10193000006800F4805048B14FF480502B49086093
:101940002B48C06A10B12A49C86A804727480068F6
:1019500000F4006048B14FF4006024490860244856
:10196000006B10B12249086B80472048006800F4E2
:10197000806048B14FF480601C4908601C48406B8F
:1019800010B11B49486B80471848006800F40050AC
:1019900048B14FF40050154908601548806C10B1EB
:1019A0001349886C80471148006800F4004048B132
:1019B0004FF400400D4908600D48C06C10B10C494F
:1019C000C86C80470948006800F4804048B14FF473
:1019D0008040064908600648006E10B10449086E50
:1019E000804710BD7047704770470000143C0140AD
:1019F0008415002010B586B0A348006840F00100AF
:101A0000A14908600846006840F0020008600846E6
:101A1000006840F0040008600846006840F00800D4
:101A20000860002410E0994800EBC4008088019011
:101A30000120029004900390944951F8340001A9C8
:101A40000CF0B6F8601CC4B2042CECDB06B010BD80
:101A500010B504468D4A02EBC40291888B4A52F8B5
:101A6000340001220CF0F9F910BD10B50446874A84
:101A700002EBC4029188854A52F8340000220CF02F
:101A8000ECF910BD10B50446804A02EBC4029188FF
:101A90007E4A52F834000CF0E5F910BD10B5002470
:101AA0000BE07A4A02EBC4029188784A52F834007B
:101AB00001220CF0D2F9601CC4B2042CF1DB10BD81
:101AC00010B500240BE0714A02EBC40291886F4A02
:101AD00052F8340000220CF0C0F9601CC4B2042C8F
:101AE000F1DB10BD10B500240AE0684A02EBC40225
:101AF0009188664A52F834000CF0B4F9601CC4B204
:101B0000042CF2DB10BDF0B585B004460D46174637
:101B10001E465F4800EBC4008088009003200390BD
:101B2000062D20D2DFE805F003080D11151A00205C
:101B300001900120029017E0002001900220029005
:101B400012E00020019002900EE00120019002902E
:101B50000AE0012001900220029005E0112001908E
:101B60000020029000E000BF00BF56B3E21D4849CC
:101B700001EBC401897948B2002105F065FF4449B1
:101B800001EBC401897948B205F09CFF012F04D014
:101B9000022F07D0032F0FD109E03E4901980843D7
:101BA00001900AE03C4901980843019005E03B4957
:101BB00001980843019000E000BF00BF384840F89A
:101BC0002460334951F8340069460BF0F1FF05B049
:101BD000F0BD70B504460D462D4A02EBC402918853
:101BE0002B4A52F834002A460CF037F970BD10B574
:101BF0000446274A02EBC4029188254A52F8340071
:101C00000CF023F910BD10B50446214A02EBC402C2
:101C100091881F4A52F834000CF024F910BD00B529
:101C200091B019481030006840F0805016491031CA
:101C300008601C48006840F440401A4908600120D0
:101C40000590069002200B9041050C9119210D91F1
:101C50004FF4A8710E9102210F910721109105A850
:101C60000CF074F90D2000900220019000200290E9
:101C70004FF4A05003904FF4805004900521684623
:101C80000CF060FB11B000BD30380240802B010821
:101C9000A02B0108000011100000211000003110DD
:101CA00084150020007000400146244810F81100FF
:101CB00070470146214A02EB4102507800221F4B37
:101CC00003EB41035A70704703282DDC1B4A12F8BE
:101CD00010208A1A012A22D131B1012905D0022906
:101CE0000BD003291AD110E018E00122134B03F89E
:101CF000102003EB40035A7010E002220F4B03F850
:101D0000102003EB40035A7008E000220B4B03F84D
:101D10001020032203EB40035A7000BF04E00022AE
:101D2000064B03EB40035A7070470021034A02F848
:101D3000101002EB40025170704700006C0F002041
:101D400070B5002401200EF07DFB054601200DF04A
:101D500027FA05460A21294800F098FA204670BD66
:101D600010B501200DF06AFF01200EF0D5FF002014
:101D700010BD2248806870472048C0681F494968E4
:101D800000EB01104068704770B504460D462646CA
:101D90002A463146194800F0D6FA70BD70B504469F
:101DA0000D4626462B463246812101200EF028FBA7
:101DB000012070BD02460020B2F5407F12D008DC41
:101DC000012A12D0B2F5807F0AD0B2F5007F0ED181
:101DD00007E0B2F5806F06D0B2F5A06F07D103E03F
:101DE00008E007E006E005E004E0002002E04FF034
:101DF000FF3000BF00BF704770477047F8150020E4
:101E00007047704770477047704703461878C0F3B3
:101E1000411030B1012805D0022812D0032812D178
:101E200010E010E0187800F01F0020B1012803D066
:101E3000022803D101E002E001E000E000BF00BFA2
:101E400001E000E000BF00BF002070470178C1F34F
:101E5000411131B1012905D0022912D0032912D133
:101E600010E010E0017801F01F0121B1012903D039
:101E7000022903D101E002E001E000E000BF00BF61
:101E800001E000E000BF00BF70470146002070473E
:101E90000146002070477047704770477047704791
:101EA000704770477047704770477047704770477A
:101EB0007047704770477047704710B5044604F08C
:101EC000800060B904F00F00012806D143023F4AA8
:101ED000012108460EF044FA00E000BF00BF10BD2B
:101EE000704703461878C0F3411030B1012805D07F
:101EF000022812D0032812D110E010E0187800F068
:101F00001F0020B1012803D0022803D101E002E024
:101F100001E000E000BF00BF01E000E000BF00BF43
:101F2000002070470178C1F3411131B1012905D07A
:101F3000022912D0032912D110E010E0017801F03B
:101F40001F0121B1012903D0022903D101E002E0E0
:101F500001E000E000BF00BF01E000E000BF00BF03
:101F6000704701460020704701460020704770B559
:101F7000044604F0020080B1012108460EF001FA87
:101F800005462A461149124800F037FA4FF400730B
:101F90000E4A012108460EF0E3F904F0040028B1CE
:101FA000812101200EF03EFA054600BF70BD70474A
:101FB0007047704770477047704770477047704769
:101FC0007047704770477047704700000816002040
:101FD000F8150020012804D0022803D0042805D1D8
:101FE00002E003E000BE01E000BE00BF00BF70479A
:101FF00070B500262D4C2E48A1688847054605B1CE
:1020000001260220216988472A492B48626A9047A5
:1020100000211320626A9047304670BD70B50025DC
:10202000224EF0688047044604B10125284670BD61
:102030002DE9F041044600261C4F214610207A6A03
:102040009047054605B101263046BDE8F0810246BD
:10205000704702460B4688B2704700207047002048
:10206000704702460020B2F5407F12D008DC012AFA
:1020700012D0B2F5807F0AD0B2F5007F0ED107E012
:10208000B2F5806F06D0B2F5A06F07D103E008E08B
:1020900007E006E005E004E0002002E04FF0FF303A
:1020A00000BF00BF7047704770470000982D0108BF
:1020B000D51F000840420F000180080070B504469B
:1020C0006A4D082C33D006DC012C2AD0022C09D012
:1020D000042C32D12AE0102C2DD0202C2AD0402CD8
:1020E0002BD125E0624800886249097888420AD0ED
:1020F0005F480178604802880088401C5E4B188069
:102100005E48815408E05C4802885C495C4800F005
:1021100074F900205849088001215548AA69904760
:102120000BE0584800680EF08FFE06E000BF04E0A8
:1021300000BE02E000BF00BE00BF00BF70BD70B5B2
:1021400000264A4C5048A1688847054605B101263B
:102150000220216988474FF4E1310120A26A9047AB
:102160000A21474800F092F801211520A26A904701
:1021700001211620A26A90470D203E4908700020D8
:102180003D49088001213A48A2699047304670BD18
:1021900070B50025354EF0688047044604B101252E
:1021A000374800F090F8284670BD2DE9F04105460B
:1021B0000C462E4E0027A84620460EF073FE3149ED
:1021C0000860224641462F4800680CF046FF214631
:1021D0002C4872690068904707463846BDE8F08190
:1021E00070B504460D4626462A463146244800F07E
:1021F000AAF870BD2248806870472148C06820490D
:10220000496800EB01104068704710B50246072A84
:1022100025D006DC24D2DFE802F0231B1D1E1F2080
:102220002100B2F5407F10D006DCB2F5807F0AD0E5
:10223000B2F5007F14D107E0B2F5806F06D0B2F599
:10224000A06F0DD103E00EE00DE00CE00BE00AE022
:10225000002008E007E006E005E004E003E002E01B
:102260004FF0FF3000BF00BF10BD00000C2E010872
:10227000780F00207C0F00207A0F00201818002013
:1022800008180020740F0020BD20000870B5044617
:102290000D46002020606060A06028010EF002FE64
:1022A000E060E06800B12560206870BD70B504464C
:1022B0002568E0680EF0C8FD0020E0602060A060A6
:1022C0006060284670BD2DE9F0410446266800256F
:1022D0000DE0606828442168B0FBF1F201FB1200B8
:1022E000E16801EB00173846FFF7E0FF6D1CA068BE
:1022F000A842EED8E0680EF0A7FD0020E060206064
:102300006060A0603046BDE8F081F0B503460C4641
:102310005D68954201D9104600E0586800210CE044
:10232000DD689E68AD5D65549D686D1C1E68B5FBDB
:10233000F6F706FB17559D60491C8142F0D35D6896
:102340002D1A5D60F0BD2DE9F04104460D4616469C
:10235000A846E168626801EB021032464146FFF789
:10236000D4FFE168626801EB0210FFF79FFF0746A8
:102370006068401C2168B0FBF1F201FB1200606054
:10238000A068401EA0603846BDE8F081F0B5034665
:102390000C469E685F683E441F68B6FBF7FC07FB6F
:1023A0001C651E685F68F61B964201D9104602E064
:1023B0001E685F68F01B002109E0665CDF687E55DF
:1023C0001F686E1CB6FBF7FC07FB1C65491C8142AD
:1023D000F3D35E6806445E60F0BD70B504460D46FA
:1023E000002020606060A06028460EF05BFDE06089
:1023F000E06800B12560206870BD2DE9F047044613
:102400000E4615460027B1466068A1680844216859
:10241000B0FBF1F201FB120AE06800EB0A18294652
:102420004046FFF7DAFFA84215D12A464946404602
:10243000FFF7ACFF0746A0682168884208D16068B2
:10244000401C2168B0FBF1F201FB1200606002E069
:10245000A068401CA0603846BDE8F087F0B5034690
:102460009E685F683E441F68B6FBF7FC07FB1C656F
:102470001E68964204D30E68964201D3104606E0C9
:102480001E680F68BE4201D3086800E01868002487
:1024900013E0CE688F68F65DDF687E558E68761C27
:1024A0000F68B6FBF7FC07FB1C668E601F686E1C8E
:1024B000B6FBF7FC07FB1C65641C8442E9D34E683D
:1024C000361A4E605E6806445E60F0BD2DE9F0414C
:1024D00004460D461646E068626800EB021132467B
:1024E0002846FFF7BBFF0746E168626801EB021070
:1024F000FFF7DCFE6068401C2168B0FBF1F201FBD5
:1025000012006060A068401EA0603846BDE8F081FF
:102510002DE9F04104460F4615466068A16808445D
:102520002168B0FBF1F201FB12064FF00008E168F0
:1025300001EB06102946FFF750FF012817D1E1688B
:1025400001EB06102A463946FFF788FF8046A0684F
:102550002168884208D16068401C2168B0FBF1F214
:1025600001FB1200606002E0A068401CA0604046D1
:10257000BDE8F081014648688A6810440A68B0FBEB
:10258000F2F302FB1300C0B2704710B50146CA68EF
:102590008B68D05C8A68521C0B68B2FBF3F403FBB7
:1025A00014228A604A68521E4A6010BD70B5024605
:1025B000946855682C441568B4FBF5F605FB164382
:1025C0000120D468E15454681568AC4209D194687C
:1025D000641C1568B4FBF5F605FB164494600020F6
:1025E00002E05468641C546070BDF0B506460D46A8
:1025F0000127706804280FD300240BE03046FFF752
:10260000C4FFC4F10301C900884029680843286059
:10261000601CC4B2042CF1DB3846F0BDF0B50446B2
:102620000E4601272068042816D3002511E06068B3
:102630002168884209D0C5F10300C00026FA00F0E5
:10264000C1B22046FFF7B2FF01E0002703E0681C9B
:10265000C5B2042DEBDB00BF3846F0BD2DE9F041DB
:1026600005460E46D5F8048040460EF01BFC074692
:102670000FB92C6816E0424639462846FFF745FE5A
:102680002846FFF713FE31462846FFF7A6FEB04264
:1026900001D1002406E03446424639462846FFF779
:1026A00075FE00BF38460EF0CFFB2046BDE8F08136
:1026B00010B50246906808441368B0FBF3F403FBBE
:1026C0001400D368185C10BD00BFFEE7012806D0D7
:1026D000022805D0032804D0042804D102E002E037
:1026E00001E000E000BF00BF00BFFEE710B54FF003
:1026F000A04040694FF0A041896900EA01046748A1
:102700000078022803D1204603F06CFB00BF00BF15
:1027100010BD10B586B0044604F00100C0B1604899
:10272000006840F001005E490860881401900220B2
:1027300002900020039004900A20059001A95948B6
:102740000BF036FA5848007840F0010056490870FE
:1027500004F00200C0B15248006840F00100504946
:102760000860C81401900220029000200390049099
:102770000A20059001A94B480BF01AFA4A48007844
:1027800040F002004849087004F01000C0B144480D
:10279000006840F0010042490860081501900220DD
:1027A00002900020039004900A20059001A93D4862
:1027B0000BF0FEF93C48007840F010003A490870F0
:1027C00004F00400D0B135480078022816D134480E
:1027D000006840F00100324908604815019000206F
:1027E000029003900490059001A92E480BF0E0F9A7
:1027F0002D48007840F004002B49087006B010BD49
:1028000010B5044628480078204000F0010050B17F
:102810004FF4805123480BF0B4FA2348007820F09D
:1028200001002149087020480078204000F0020093
:1028300050B14FF400611B480BF0A3FA1A4800781E
:1028400020F002001849087017480078204000F076
:10285000100050B14FF4806112480BF092FA124808
:10286000007820F01000104908700F4800782040D0
:1028700000F0040068B109480078022809D101027B
:1028800008480BF07EFA0848007820F0040006495A
:10289000087010BD7047002070470000A10F002095
:1028A0003038024000000240A00F002010B5AC48B4
:1028B0004069AB49896900EA0104AA480078022806
:1028C00003D1204604F0E9FC00BF00BF10BD10B5E5
:1028D00086B0044604F0030000287DD0A2480068BA
:1028E00040F00400A04908600420019002200290FA
:1028F00000200390032004900A20059001A99B4822
:102900000BF056F99848006840F0010096490860BD
:1029100020200190022002900020039003200490C8
:102920000A20059001A992480BF042F98E480068F0
:1029300040F004008C4908600820019002200290B9
:1029400000200390032004900A20059001A98748E5
:102950000BF02EF98448006840F0040082490860BA
:102960000120019002200290002003900320049097
:102970000A20059001A97D480BF01AF97A480068F1
:1029800040F0010078490860082001900220029080
:1029900000200390032004900A20059001A97448A8
:1029A0000BF006F97048006840F002006E490860BC
:1029B0000120019002200290002003900320049047
:1029C0000A20059001A96B480BF0F2F866480068F0
:1029D00040F00200644900E078E0086002200190C5
:1029E000029000200390032004900A20059001A982
:1029F00060480BF0DDF85C48006840F002005A497E
:102A00000860081501900220029000200390032026
:102A100004900A20059001A956480BF0C9F85248C5
:102A2000006840F0020050490860C814019002207C
:102A3000029000200390032004900A20059001A931
:102A40004C480BF0B5F84848006840F00200464991
:102A50000860881401900220029000200390032057
:102A600004900A20059001A942480BF0A1F83E48C5
:102A7000006840F002003C4908604FF400500190AB
:102A80000220029000200390032004900A20059069
:102A900001A938480BF08CF83348006840F0020078
:102AA000314908602020019002200290002003900C
:102AB000032004900A20059001A92E480BF078F815
:102AC0002D48007840F003002B49087006B010BD77
:102AD00010B5044628480078204000F00300002884
:102AE00039D0042121480BF04CF9202120480BF06B
:102AF00048F908211D480BF044F901211B480BF04F
:102B000040F908211A480BF03CF9012119480BF053
:102B100038F9022117480BF034F94FF48061154859
:102B20000BF02FF94FF4006112480BF02AF94FF423
:102B3000805110480BF025F94FF400510D480BF06F
:102B400020F920210B480BF01CF90B48007820F0ED
:102B500003000949087010BD70470020704700004D
:102B600000000440A40F002030380240000802405A
:102B70000000024000040240A30F0020FD498842EB
:102B800005D1FD49096841F00101FB4A1160FB498B
:102B9000884205D1F849096841F00201F64A1160FE
:102BA000F749884205D1F449096841F00401F24A25
:102BB0001160F449884205D1EF49096841F00801E4
:102BC000ED4A1160F049884205D1EB49096841F0AE
:102BD0001001E94A1160ED49884205D1E6490968CA
:102BE00041F02001E44A1160E949884205D1E249F7
:102BF000096841F04001E04A1160E649884205D188
:102C0000DD49096841F08001DB4A1160E2498842F0
:102C100005D1D949096841F48071D74A11607047DC
:102C200008B5DE480068009008BDDD4800687047C0
:102C300030B585B005460C46606A007A00F00100A8
:102C400010B1002005B030BD606A007A00F00200CB
:102C500010B14FF0FF30F5E7606A0560606A4068C8
:102C600020F00100616A4860606A406820F002005C
:102C7000616A4860606A406820F00400616A4860E8
:102C80001C21A06A0CF002FA21690868FFF776FFA0
:102C9000206940680090022001900020029003907B
:102CA0002069806804902169086869460AF080FFFD
:102CB000A1680868FFF762FFA068406800900220E2
:102CC0000190002002900390A06880680490A168A1
:102CD000086869460AF06CFFE1680868FFF74EFF74
:102CE000E06840680090022001900020029003906C
:102CF000E06880680490E168086869460AF058FF57
:102D0000E06910B9206A00287DD0E06900283BD036
:102D1000E0698068E16909680860E069C068E169A4
:102D2000096848600021E06900688160E069006826
:102D3000C161E0690169006801620021E069006821
:102D400041620321E069006881620021E069006856
:102D5000C162E069006801630020E1690968886375
:102D6000E0694068E1690968C8630020E1690968B1
:102D70000864E16909684864E16909688864E1698F
:102D800091F9140004F09EFE206A00283ED0206ACB
:102D90008068216A09680860206AC068216A096839
:102DA00048604021206A006881600021206A006834
:102DB000C161206A0169006801620021206A00681F
:102DC00041620321206A006881620021206A006854
:102DD000C162206A006801630020216A0968886373
:102DE000206A4068216A0968C8630020216A09686E
:102DF0000864216A09684864216A09688864216A4C
:102E000091F9140000E016E004F05CFE65492068CA
:102E1000884203D064492068884206D15648006839
:102E200040F400105449086005E05348006840F43D
:102E30008000514908600120616A0872002001E7A2
:102E400010B50446606A007A00F0010008B900205D
:102E500010BD606A007A00F0020010B14FF0FF3040
:102E6000F6E7A06818B1A26803CA0AF08AFFE06812
:102E700018B1E26803CA0AF084FF206918B1226918
:102E800003CA0AF07EFF606918B1626903CA0AF0DA
:102E900078FFE06908B9206AA8B1E06940B1E1694A
:102EA00091F9140004F01BFEE169086804F048FF82
:102EB000206A40B1216A91F9140004F010FE216AE1
:102EC000086804F03DFF0020616A087200BFBFE798
:102ED00070B505460C46606A007A00F0010010B932
:102EE0004FF0FF3070BD606A007900F0010010B152
:102EF0006FF00100F6E725B1012D70D0022D6FD1E2
:102F00005BE0606A007A00F0020008B90020E9E79F
:102F100000202168486094F9180004F0E0FD0020CA
:102F20002168086021492068884208D1124814307D
:102F3000006820F4805010491431086039E01949C4
:102F40002068884208D10C481030006820F4804086
:102F50000949103108602CE013492068884227D1C4
:102F600005481030006820F4004003491031086023
:102F70001FE0000000000240303802400004024020
:102F800000080240000C0240001002400014024001
:102F900000180240001C024000200240342D0108AD
:102FA000382D010800380040003C0040003001404E
:102FB00000BF0120616A087244E0606A007A00F094
:102FC000020008B100208DE7F9492068884208D145
:102FD000F848006840F48050F64908601CE02EE094
:102FE0002CE0F5492068884208D1F248001F0068AB
:102FF00040F48040EF49091F08600DE0EF49206868
:10300000884208D1EB48001F006840F40040E949BD
:10301000091F086000E000BF002021684860606A66
:10302000007A40F00200616A087294F9180004F016
:1030300003FE94F9180004F045FD03E000BF6FF0B3
:1030400003004FE700BF00204CE770B506460D4671
:10305000144606B115B96FF0040070BD606A007ABD
:1030600000F0040010B94FF0FF30F6E7606A007915
:1030700000F0010010B16FF00100EEE7A06818B198
:10308000606A007B012805D0E06828B1606A007B97
:10309000022801D1012000E0002010B94FF0FF30DC
:1030A000DBE7606A406820F00100401C616A48600C
:1030B000606A406820F00200616A4860606A4068A7
:1030C00020F00400616A48600020A16A4860A06A9C
:1030D0008660A06A05600020A16AC860A16A0861D4
:1030E000E06990B30021E0690068C160E0690068B0
:1030F00001612068006800F4006040B14FF4006195
:10310000E06900684161E0690068816106E00021D2
:10311000E06900684161E06900688161E16908680F
:1031200004F0D2FD10B14FF0FF3096E7A36A03F12F
:103130001402236803F10C01E36918682B4605F0BB
:10314000F0FD18B14FF0FF3087E706E020684068D7
:1031500040F001002168486005E02068406840F0C8
:10316000400021684860206A90B30021206A00680E
:10317000C1604FF48061206A0068016120680068C6
:1031800000F4006038B14900206A00684161206A9B
:103190000068816106E00021206A00684161206AC0
:1031A00000688161216A086804F08EFD10B14FF05B
:1031B000FF3052E7236803F10C02A36A9968236A7F
:1031C00018682B4605F0ADFD18B14FF0FF3044E70D
:1031D00006E02068406840F002002168486005E091
:1031E0002068406840F0800021684860002034E793
:1031F00070B506460D46144606B115B96FF00400C9
:1032000070BD606A007A00F0040010B94FF0FF3022
:10321000F6E7606A007900F0010010B16FF001007C
:10322000EEE7E06818B1606A007B012805D0A0686D
:1032300028B1606A007B022801D1012000E0002053
:1032400010B94FF0FF30DBE7606A406820F0010002
:10325000401C616A4860606A406820F00200616A50
:103260004860606A406820F00400616A4860A06AB3
:1032700046600020A16A8860A06A05600020A16AFB
:10328000C860A16A0861E06990B30021E069006844
:10329000C1604FF48061E0690068016120680068E6
:1032A00000F4006038B14900E06900684161E069FC
:1032B0000068816106E00021E06900684161E06921
:1032C00000688161E169086804F0FEFC10B14FF00C
:1032D000FF3095E7A36A5A68236803F10C01E3699C
:1032E00018682B4605F01DFD18B14FF0FF3087E739
:1032F00006E02068406840F001002168486005E071
:103300002068406840F0400021684860206A90B31F
:103310000021206A0068C160206A0068016120689D
:10332000006800F4006040B14FF40061206A00685A
:103330004161206A0068816106E00021206A00681E
:103340004161206A00688161216A086804F0BCFC60
:1033500010B14FF0FF3053E7236803F10C02A36A6A
:1033600003F11801236A18682B4605F0DAFC18B13E
:103370004FF0FF3044E706E02068406840F002006C
:103380002168486005E02068406840F080002168BE
:103390004860002034E72DE9F04106460F46154607
:1033A0001C460EB107B15DB96FF00400BDE8F081B5
:1033B000003001404438024000380040003C0040EA
:1033C000606A007A00F0040010B94FF0FF30EDE7BA
:1033D000606A007900F0010010B16FF00100E5E7CC
:1033E000E06808B1A06810B94FF0FF30DEE7606A0E
:1033F000406820F00100401C616A4860606A4068D3
:1034000020F00200616A4860606A406820F00400B1
:10341000616A4860A06A4760A06A8660A06A056029
:103420000020A16AC860A16A0861E06910B9206A39
:10343000002879D0E06990B30021E0690068C1609C
:103440004FF48061E069006801612068006800F461
:10345000006038B14900E06900684161E0690068D6
:10346000816106E00021E06900684161E06900686F
:103470008161E169086804F027FC10B14FF0FF306A
:1034800094E7A36A5A68236803F10C01E36918689A
:103490002B4605F046FC18B14FF0FF3086E705E0FB
:1034A0002068406840F0010021684860206A90B3BD
:1034B0000021206A0068C1604FF48061206A0068C2
:1034C00001612068006800F4006038B14900206A9A
:1034D00000684161206A0068816106E00021206A7D
:1034E00000684161206A00688161216A086804F00F
:1034F000EBFB10B14FF0FF3058E7236803F10C02EB
:10350000A36A9968236A18682B4605F00AFC20B163
:103510004FF0FF304AE70DE006E02068406840F0D9
:1035200002002168486005E02068406840F0C00063
:1035300021684860002039E70146886AC068704702
:103540002DE9F04F85B080468946144600250026B7
:103550000027AB46606A007A00F0020018B9681EC6
:1035600005B0BDE8F08F08F0FF00142831D1206AC3
:1035700050B12068406820F0020021684860216A4C
:10358000086805F015FC05E02068406820F0800020
:1035900021684860E06950B12068406820F001006F
:1035A00021684860E169086805F002FC05E02068D0
:1035B000406820F04000216848601C21A06A0BF0A0
:1035C00065FD606A406820F00100616A4860002083
:1035D000C6E7606A007900F0010010B16FF00100E9
:1035E000BEE708F0FF0004281ED007DC78B10128F0
:1035F0000FD0022812D003286FD112E0102816D065
:10360000112837D012283ED01328F5D140E000BF52
:103610008AE045F0010547F0040785E045F0020522
:1036200082E06FF006009BE76FF0060098E76068A5
:1036300080478246012605E02AFA06F0484500D870
:1036400002E0761C082EF7D300BF2068006820F047
:1036500040002168086020680168701E41EAC000CF
:10366000216808602068006840F040002168086018
:10367000002075E76068804721680968C1F3C201CE
:10368000491CC8406CE7A16AA1F81890002067E7C0
:10369000606A067B012E23D1606AC06800F4C01600
:1036A0006069B8B1B6F5002F14D1B9F1000F08D197
:1036B0006269928891B26269106801220AF0CDFBBA
:1036C0000CE06269928891B26269106800220AF087
:1036D000C4FB03E04FF0FF3042E722E000203FE769
:1036E000022E1BD1606AC06800F40016B6F5002FE8
:1036F00011D1B9F1010F06D12068006840F4807043
:103700002168086005E02068006820F48070216866
:103710000860002024E74FF0FF3021E74FF0FF3032
:103720001EE76FF003001BE700BF08F4E060B0F590
:10373000407F16D007DC68B1B0F5807F0BD0B0F5C4
:10374000007F17D10AE0B0F5806F0DD0B0F5A06F03
:1037500010D10CE011E047F001070EE047F002073E
:103760000BE047F0030708E047F0100705E06FF0B3
:103770000700F5E66FF00700F2E600BF08F47C30C2
:10378000B0F5004F03D0B0F5803F04D100E005E074
:1037900047F4006702E06FF00800E1E600BF08F4BC
:1037A0008020B0F5802F01D147F08007012D73D123
:1037B00008F4C01048B1B0F5002F2DD0B0F5801F2F
:1037C00046D0B0F5C01F63D109E0606918B16269E5
:1037D00003CA0AF0D6FA47F4407700BF5BE060699D
:1037E000A0B161690868FFF7C9F960694068009095
:1037F000022001900020029003906069806804908C
:103800006169086869460AF0D3F902E06FF00A00BE
:10381000A6E645F4C0153EE06069A8B16169086894
:10382000FFF7ACF96069406800900120019000202A
:10383000029003906169086869460AF0B9F947F493
:10384000407745F4002502E06FF00A0088E622E0A8
:103850006069C0B161690868FFF790F96069406804
:10386000009002200190002002900390606980681F
:1038700004906169086869460AF09AF94BF0040BF4
:1038800045F4801502E06FF00A0069E603E003E00A
:103890006FF00A0064E600BF022D2CD108F400107E
:1038A00018B1B0F5001F22D116E0606980B16069DF
:1038B000406800900220019000200290039060690F
:1038C000806804906169086869460AF071F902E04D
:1038D0006FF00A0044E60DE0606918B1626903CA3E
:1038E0000AF04FFA47F4007745F4001502E06FF054
:1038F0000A0035E600BF606880478246012605E081
:103900002AFA06F0484500D802E0761C082EF7D3C4
:1039100000BF701E47EAC007606AC5602068006883
:1039200020F04000216808604BF0200021684860CA
:1039300020680760E8B230B9606A007A20F00400BD
:10394000616A087205E0606A007A40F00400616A0A
:1039500008722068006840F040002168086000207C
:10396000FEE50146486A406870472DE9F04104468B
:103970002068806887B2002507F0400040B1606A87
:10398000406820F00200801C616A486045F0020532
:1039900007F0080040B1606A406820F00200801C17
:1039A000616A486045F0020507F0200040B1606A96
:1039B000406820F00400001D616A486045F004057D
:1039C00007F00200002836D02068406800F0800030
:1039D00070B3A06A006860B3A06A806898B1A06AFA
:1039E0008168481CA26A90600E782068006800F424
:1039F000006050B1A06A8168481CA26A9060087893
:103A000046EA002601E0A06A068B2068C660A06A2C
:103A10000069401CA16A0861A06A0069A16A09687E
:103A2000884208D12068406820F080002168486002
:103A300001E045F0020507F00100002844D02068AD
:103A4000406800F0400000283ED02068C06886B280
:103A5000A06A0068A8B3A06A406888B1A06A4268FA
:103A6000501CA36A586016702068006800F400605B
:103A700030B13112A06A4268501CA36A58601170BC
:103A8000A06AC068401CA16AC860A06AC068A16A38
:103A90000968884218D12068406820F040002168F9
:103AA000486094F9180004F0C7F80020A16A086083
:103AB000606A406820F00100616A486045F00105D5
:103AC00002E0FFE745F0020535B1606A006818B111
:103AD000606A016828468847BDE8F081016A096884
:103AE0000968496819B1816A096801B17047816A3A
:103AF0000968826A116100BFF8E710B50446E06901
:103B000000680068406818B1A06A006800B110BD84
:103B1000A06A0068A16A0861606A406820F001003C
:103B2000616A4860606A006818B1606A01680120D3
:103B3000884700BFEBE710B5044631492046FFF740
:103B400077F810BD10B52E48FFF77AF910BD10B503
:103B500004462B492046FFF7BBF910BD70B504465B
:103B60000D46274A29462046FFF76FFA70BD70B50B
:103B700004460D46224A29462046FFF739FB70BD10
:103B800070B504460D4616461D4B32462946204662
:103B9000FFF701FC70BD10B51948FFF7CDFC10BD53
:103BA00070B504460D46164A29462046FFF7C8FC64
:103BB00070BD08B51248FFF7D4FE009008BD10B5DF
:103BC0000F48FFF7D2FE10BD00B503460C48FFF7C3
:103BD00085FF00BD10B5102004F02EF8094807F04D
:103BE000C3FC10BD10B504460548FFF786FF10BDA5
:103BF00010B50D2004F020F8034807F0B5FC10BD07
:103C00006C2D0108FCC60020ACC60020FE4988428D
:103C100005D1FE49096841F00101FC4A1160FC49E7
:103C2000884205D1F949096841F00201F74A11605B
:103C3000F849884205D1F549096841F00401F34A81
:103C40001160F549884205D1F049096841F0080141
:103C5000EE4A1160F149884205D1EC49096841F00A
:103C60001001EA4A1160EE49884205D1E749096826
:103C700041F02001E54A1160EA49884205D1E34953
:103C8000096841F04001E14A1160E749884205D1E5
:103C9000DE49096841F08001DC4A1160E34988424D
:103CA00005D1DA49096841F48071D84A116070473A
:103CB00008B5DF480068009008BD014608687047F5
:103CC00070B505460C46E06A007A00F0020010B1BB
:103CD0004FF0FF3070BDE06A007A00F0010008B1DB
:103CE0000020F7E7E06A0560E06A406820F0010024
:103CF000E16A4860E06A406820F00200E16A4860DA
:103D0000E06A406820F00400E16A4860E06A4068C8
:103D100020F00800E16A4860E06A406820F0100086
:103D2000E16A4860E06A406820F02000E16A48608B
:103D3000E06A406820F04000E16A48600020E16AE3
:103D4000C8602421206B0BF0A1F9E1680868FFF737
:103D50005DFF21690868FFF759FF606918B1616963
:103D60000868FFF753FFA06918B1A1690868FFF759
:103D70004DFFE06918B1E1690868FFF747FF0120CE
:103D8000E16A08720020A5E710B50446E06A007AEF
:103D900000F0020010B14FF0FF3010BDE06A007A71
:103DA00008B90020F9E7E06820B1E268918810685E
:103DB00009F0E7FF206920B122699188106809F0B5
:103DC000E0FF606920B162699188106809F0D9FF4D
:103DD000A06920B1A2699188106809F0D2FFE0695A
:103DE00020B1E2699188106809F0CBFF0020E16AF8
:103DF000087200BFD1E730B50246C86A007A00F009
:103E0000010010B94FF0FF3030BDC86A0079C0F32F
:103E1000400010B16FF00100F6E7C86A007A00F0C8
:103E2000200010B16FF00100EEE7C86A007A00F0E0
:103E3000020060B14868C06800F0080038B1486806
:103E4000006800F0400010B96FF00100DCE722B11B
:103E5000012A67D0022A6FD167E0C86A007A00F0B1
:103E6000020008B90020CFE791F9200000F01F04FC
:103E70000123A3406F4C450944F8253000BF6E4B29
:103E80004868984208D161481430006820F010005A
:103E90005E4B1433186041E0684B4868984208D183
:103EA0005A481030006820F40030584B1033186026
:103EB00034E0634B4868984208D154481030006899
:103EC00020F48020514B1033186027E05D4B486888
:103ED000984208D14D481030006820F400204B4B28
:103EE000103318601AE0584B4868984208D1474888
:103EF0001030006820F48010444B103318600DE03F
:103F0000524B4868984208D140481430006820F06D
:103F100020003E4B1433186000E000BF0120CB6A44
:103F20001872A6E06FF003006EE7C86A007A00F02E
:103F3000020010B1002067E798E03F4B48689842C4
:103F400008D132481430006840F010002F4B143371
:103F5000186041E0394B4868984208D12B4810302E
:103F6000006840F40030294B1033186034E0344BC3
:103F70004868984208D125481030006840F48020F5
:103F8000224B1033186027E02E4B4868984208D126
:103F90001E481030006840F400201C4B103318609D
:103FA0001AE0294B4868984208D118481030006838
:103FB00040F48010154B103318600DE0234B486817
:103FC000984208D111481430006840F020000F4B8F
:103FD0001433186000E000BF00204B68D8604B68C5
:103FE00018614B6858610320CB6A187291F9200060
:103FF00000F01F040123A340154C450944F8253067
:1040000000BF91F9200025E0000002403038024056
:104010000004024000080240000C02400010024070
:104020000014024000180240001C02400020024020
:10403000C42D010880E100E0001001400044004070
:1040400000480040004C0040005000400014014077
:1040500080E200E000F01F040123A3404409A40013
:1040600004F1E024C4F8003100BF02E06FF0030067
:10407000CAE600BF0020C7E62DE9F04105460E461E
:10408000144605B11EB96FF00400BDE8F081E06A86
:10409000007A00F0040010B94FF0FF30F5E7E06A55
:1040A0000079C0F3400010B16FF00100EDE7206B24
:1040B0000660E06A406820F01000E16A4860E06A4B
:1040C000406820F02000E16A4860E06A406820F023
:1040D0000800E16A4860E06A406820F04000E16A58
:1040E0004860206B85600020216B0861E06A4068B1
:1040F00020F00200801CE16A4860E06AC068022883
:1041000012D1206BC06978B90220216BC861216B84
:1041100001F11A002246314600F008F80746B81CA3
:1041200010B96FF00100B0E70020AEE72DE9F041D3
:1041300005460E46144605B11EB96FF00400BDE8F1
:10414000F081E06A007A00F0040010B94FF0FF300F
:10415000F5E7E06A007A00F0200010B16FF001008E
:10416000EDE7E06A007A40F02000E16A0872206B17
:10417000C560206B46600020216B4861E06AC06822
:10418000022812D1206BC06978B90120216BC86167
:10419000216B01F1180022463146FFF76DFF0746FB
:1041A000B81C10B96FF00100C9E76068C06840F042
:1041B00080006168C8600020C1E72DE9F0418046B9
:1041C0000E4617461C46B8F1000F01D006B11FB9C4
:1041D0006FF00400BDE8F081E06A007A00F00400AE
:1041E00010B94FF0FF30F5E7E06AC068022814D13B
:1041F0000320216BC861224639463046FFF73CFF59
:1042000005460DB12846E5E7224639464046FFF708
:104210008DFF054625B12846DCE74FF0FF30D9E792
:104220000020D7E70146086B406970470146086BDC
:10423000006970472DE9F04F8BB007460D461446D4
:10424000E06A007A00F0020020B94FF0FF300BB0B6
:10425000BDE8F08F0020079080460690F8B2153830
:10426000062876D2DFE800F0ACEA03335676C5B113
:10427000E06A007A00F0200010B16FF00100E6E77C
:10428000E06A007A40F02000E16A08720120216BA8
:1042900081F820006068C06840F081006168C860F3
:1042A00013E0206B90F8200078B16068C06820F0BF
:1042B00080006168C8600020216B81F82000E06AFE
:1042C000007A40F02000E16A08720020BFE76068D1
:1042D000C06820F0C0006168C860606A70B1E06AC0
:1042E000007A00F0200048B16068406920F080004A
:1042F00061684861616A086804F05AFD0020216B1A
:1043000081F82000E06A007A20F02000E16A08725B
:1043100000209CE76068C06820F020006168C860E9
:10432000A06A70B1E06A0079C0F3400048B16068EB
:10433000406920F0400061684861A16A086804F0A3
:1043400037FDE06A406820F00200E16A4860002022
:104350007DE7F5E06068C06820F0E0006168C86053
:10436000606A70B1E06A007A00F0200048B16068CD
:10437000406920F0800061684861616A086804F063
:1043800017FDA06A70B1E06A0079C0F3400048B13F
:104390006068406920F0400061684861A16A08686F
:1043A00004F006FDE06A406820F00200E16A48601F
:1043B000E06A007A20F02000E16A0872002046E7F7
:1043C000E06810B94FF0FF3041E705B3E06AC0681C
:1043D00006280FD0E068808801900220029000201B
:1043E00003900490E06880790590E168086801A96D
:1043F00009F0DEFBE06A007A40F00800E16A08722A
:104400006068C06840F008006168C86014E0E06A55
:10441000007A20F00800E16A08726068C06820F045
:1044200008006168C860E06AC068062804D0E268D5
:104430009188106809F0A5FC002008E7206910B9F0
:104440004FF0FF3003E795B3E06AC068062813D049
:10445000E06AC06804280FD020698088019002209B
:1044600002900020039004902069807905902169D2
:10447000086801A909F09CFBE06A007A40F010008E
:10448000E16A08726068406940F001006168486153
:104490006068006940F0400061680861E06A007986
:1044A000C0F3400020B1A06A10B1012001E014E087
:1044B000002028B96068C06840F020006168C860CA
:1044C0006068406940F04000616848616068C068A9
:1044D00040F004006168C86030E0E06A007A20F0D3
:1044E0001000E16A08726068C06820F0040061682A
:1044F000C8606068406920F0400061684861606899
:10450000C06820F020006168C8606068406920F0E1
:104510000100616848616068006920F040006168DE
:104520000861E06AC068062808D0E06AC06804280C
:1045300004D022699188106809F023FC002086E6E7
:1045400000BF00BFE06A0079C0F3400020B9E06A14
:10455000007A00F0200010B16FF0010077E660688B
:10456000C06800F0080038B16068006800F04000E2
:1045700010B96FF001006AE6F8B2152871D2DFE8D1
:1045800000F0D60B0E1D20272ED6D6D6D6D6D6D6E0
:10459000D6D63D417388C50001200990CAE0207835
:1045A000C0F3400020B148F4006848F4807802E08D
:1045B0006FF006004BE602200990BBE06FF00600AA
:1045C00045E6069840F00800069004200990B1E006
:1045D000069840F00200069005200990AAE0207895
:1045E000C0F3401020B1069840F02000069002E091
:1045F0006FF006002BE6062009909BE0216B4D83AF
:10460000002024E6E06AC068052827D02DB3606842
:10461000406940F0040061684861A06880470A90E2
:10462000FE490A98B1FBF0F00A90012605E00A98CD
:104630007043A84200D902E0761CFF2EF7D900BFD4
:10464000B6F5807F02D14FF0FF3000E660688069E8
:1046500020F0FF0030436168886103E04FF0FF30D5
:10466000F5E564E00020F2E5E06AC06806280BD1B9
:10467000FF2D01D9C01FEAE56068806920F47F4002
:1046800028436168886102E04FF0FF30DFE50020D9
:10469000DDE5E06AC068062833D1A06880470A904B
:1046A000DE490A98B1FBF0F00A90012619E00A9859
:1046B000704340006421484305EB051101EB4101C3
:1046C000B0EB410F0CD20A9870434000642148437C
:1046D00005EB051101EB4511B0EB410F00D902E0EC
:1046E000761C402EE3D300BF402E02D14FF0FF30A6
:1046F000ADE56068806920F0FF0030436168886143
:1047000002E04FF0FF30A2E50020A0E5E06AC068BB
:10471000062807D14DB16068406940F0100061681B
:10472000486102E04FF0FF3091E500208FE56FF027
:1047300003008CE500BF07F4E06060B1B0F5807F56
:1047400013D0B0F5E06F1DD107F4405010B96FF0F1
:1047500008007CE519E007F4405028B148F0200833
:10476000079840F4805007900FE007F4405010B1D4
:104770006FF008006BE548F02008079840F480507F
:10478000079002E06FF0080061E500BF07F44050B9
:1047900030B1B0F5805F04D0B0F5005F0BD105E01B
:1047A0000CE0079840F48060079007E0079840F419
:1047B000C060079002E06FF0090048E500BF07F411
:1047C000404048B1B0F5804F07D0B0F5004F07D05A
:1047D000B0F5404F0AD106E00BE048F4005808E07D
:1047E00048F4405805E048F4805802E06FF00A00B1
:1047F0002DE500BF07F4403048B1B0F5803F09D047
:10480000B0F5003F15D0B0F5403F34D120E04FF077
:10481000000933E02078C0F3C01030B14FF4803984
:10482000069840F48070069002E06FF00B000EE5F1
:1048300024E02078C0F3C01030B14FF4003906985E
:1048400040F40070069002E06FF00B00FFE415E00A
:104850002078C0F3C01050B12088C0F3002030B1E0
:104860004FF44039069840F4E060069002E06FF0A3
:104870000B00ECE402E06FF00B00E8E400BF0998E5
:1048800002281DD107F4802018B1B0F5802F04D183
:1048900000E005E048F4806802E06FF00C00D6E428
:1048A00000BF07F4002018B1B0F5002F04D100E0DC
:1048B00005E048F4007802E06FF00D00C7E400BFA7
:1048C000A068804700EBC00101EB0010A900B0FB1D
:1048D000F1F06421B0FBF1FAA068804700EBC00161
:1048E00001EB0010A900B0FBF1FBA068804700EBD2
:1048F000C00101EB0010A900B0FBF1F06421B0FB96
:10490000F1F000EBC00101EB0010ABEB80003221B5
:1049100001EB00106421B0FBF1F06AF31F100A9064
:10492000A068804701010A9880B2B1FBF0F000094D
:10493000089064210898484305EB051101EB4101FB
:10494000B0EB410F09D264210898484305EB0511EB
:1049500001EB4511B0EB410F02D86FF0070076E490
:104960006068C06820F400506168C8600A98616897
:1049700088600998E16AC860E06AC0F81090E06A4F
:10498000C068062810D1E06880880190022002905B
:10499000002003900490E06880790590E168086841
:1049A00001A909F005F91AE0E06A007A00F00800B0
:1049B00080B1E0688088019002200290002003907E
:1049C0000490E06880790590E168086801A909F021
:1049D000EFF804E0E2689188106809F0D2F900BFAE
:1049E000E06AC068042802D0062807D100E000BFB2
:1049F00022699188106809F0C4F91EE0E06A007A23
:104A000000F0100098B12069808801900220029087
:104A10000020039004902069807901E000CA9A3B4D
:104A200005902169086801A909F0C2F804E022692B
:104A30009188106809F0A5F900BF00BF6069F0B166
:104A4000E06AC068022802D0062811D100BF606960
:104A500080880190022002900020039004906069F9
:104A6000807905906169086801A909F0A1F805E05D
:104A700062699188106809F084F900BF00BFA069DD
:104A800018B3B9F5803F02D0B9F5403F10D1A06905
:104A90008088019002200290002003900490A06979
:104AA00080790590A169086801A909F081F80CE0F6
:104AB000A06980880190012002900020039004905A
:104AC000A169086801A909F073F8E06910B3B9F5A4
:104AD000003F02D0B9F5403F10D1E06980880190D5
:104AE00002200290002003900490E06980790590F4
:104AF000E169086801A909F05BF80BE0E0698088CA
:104B000001900020029003900490E169086801A9D7
:104B100009F04EF807986168C8606068C0F81080B6
:104B20000698616848616068C06840F40050616838
:104B3000C860E06A007A40F00400E16A0872002070
:104B400006E4014648680068012222EA9012C86A19
:104B5000406862F30000CA6A5060C86A40687047E3
:104B600070B505460C4635B1012D17D0022D29D060
:104B7000032D26D127E0E06A006920B1E06A0069D0
:104B8000B0F5003F06D1A26991881068012209F0B2
:104B900064F902E04FF0FF3070BD17E0E06A006991
:104BA00020B1E06A0069B0F5003F06D1A2699188A2
:104BB0001068002209F051F902E04FF0FF30EBE7F6
:104BC00004E000BF00BF4FF0FF30E5E700BF00206A
:104BD000E2E738B50446E06A006920B1E06A00699E
:104BE000B0F5803F10D1E2699188106809F02DF985
:104BF00028B9009820F00100401C009008E00098BF
:104C000020F00100009003E0009820F001000090E7
:104C1000009820F002000090009820F0080000901A
:104C2000009820F004000090009838BD2DE9F04174
:104C300004466068066800270025A84606F0800044
:104C40006168C9680840002865D0206B90F8200092
:104C500030B16068C06840F001006168C8605AE027
:104C6000206B4068216B4969884222D0E06AC068A5
:104C7000022807D1206BC069022803D1206BB0F84D
:104C80001A8016E0206BC168481C226BD06091F836
:104C900000806068C76807F4806050B907F48050EE
:104CA00038B1206BC168481C226BD060087848EA94
:104CB0000028206B4069401C216B48616068C0F887
:104CC0000480206B4068216B4969884223D1606869
:104CD000C06820F080006168C8606068C06840F00B
:104CE00040006168C860E06A007A20F02000E16A54
:104CF0000872E06AC06802280BD1206BC0690128E5
:104D000009D1E06A007A00F0100020B945F00105F1
:104D100001E045F0010506F040006168C9680840FF
:104D200038B16068C06820F040006168C86045F034
:104D3000080506F020006168C9680840002864D0B2
:104D4000E06A0079C0F3400058B960684068E06AE2
:104D5000406820F008000830E16A486045F020050E
:104D600053E0E06AC068022806D1206BC0690128C0
:104D700002D16068406803E0606840681FFA80F80C
:104D8000206B8268501C236B986082F800806068FA
:104D9000C76807F4806050B907F4805038B14FEA13
:104DA0002821206B8268501C236B98601170206B47
:104DB0000069401C216B0861206B0069216B096848
:104DC000884222D1E06A406820F00200E16A48602F
:104DD000E06AC068022816D1206BC7690020216BE9
:104DE000C861012F04D0022F05D0032F09D105E09F
:104DF00045F0010506E045F0020503E045F0040535
:104E000000E000BF01E045F0020506F0080050B1E7
:104E100060684068E06A406820F008000830E16A95
:104E2000486045F0200506F0020050B16068406817
:104E3000E06A406820F020002030E16A486045F4D4
:104E4000807506F0010050B160684068E06A406813
:104E500020F040004030E16A486045F4007506F4F7
:104E6000807070B16068006820F4807061680860CC
:104E7000E06A406820F010001030E16A486045F0B8
:104E8000800525B1E06A006808B1012000E000203B
:104E900018B1E06A016828468847BDE8F08108B586
:104EA0002F48FEF70AFF009008BD10B504462C49B4
:104EB0002046FEF705FF10BD10B52948FEF764FF38
:104EC00010BD10B5044626492046FEF794FF10BDDC
:104ED00070B504460D46224A29462046FFF726F9BA
:104EE00070BD70B504460D461D4A29462046FFF7A1
:104EF000C3F870BD70B504460D461646184B3246D1
:104F000029462046FFF759F970BD10B51448FFF740
:104F100089F910BD10B51248FFF788F910BD70B5BA
:104F200004460D460E4A29462046FFF783F970BD18
:104F300008B50B48FFF705FE009008BD10B5044604
:104F400007492046FFF70CFE10BD08B50448FFF7DF
:104F500040FE009008BD10B50148FFF767FE10BD88
:104F6000D82D010800F00F004FF0A041096960F34F
:104F70008A1141F020014FF0A0421161704710B535
:104F80000020FA490860091F086001243FE0F84842
:104F9000E10050F8210000F0004028B14FF09041AE
:104FA000F348E20040F82210F048EC30E10050F8FD
:104FB000210000F0004030B14FF09041EB48EC3060
:104FC000E20040F82210E0B2FFF7CCFF610001EBF5
:104FD0008101E84A02EB810014210AF057F801210F
:104FE00001EB440101EB8101E24A02EB8100142153
:104FF0000AF04CF8DB21DD48F430E20040F82210E2
:105000005B21DB480830E20040F82210641C032CCE
:10501000BDD9D6481438006820F4FE60D34914394D
:1050200008604FF00110D149083108600B20CF49CA
:1050300008600320091F0860A020C1054862CE480F
:105040008862CD482830CD490860CB4850304FF0B9
:10505000A041C1F80801C8487830C8490831086043
:1050600010BDC2480C380068C0F30D2070472DE910
:10507000F04105462807C00E00EBD51000EB80007C
:10508000BC4901EB800605F00F04B068F168884266
:1050900001D9F76800E0B7683CB147F40021B44893
:1050A0001030E20040F8221004E0B5483843B0491F
:1050B00010310860AE48E10050F82100C0F3814093
:1050C000012819D1FFF7CDFF00F0010050B1A84829
:1050D000E10050F8210040F08051A548E20040F87E
:1050E000221009E0A248E10050F8210040F00051F0
:1050F0009F48E20040F822109D48E10050F821004E
:1051000040F004419A48E20040F82210BDE8F081E6
:105110002DE9F84304460A462007C00E00EBD410E0
:1051200000EB8000DFF84C9209EB800104F00F0CDB
:105130008F484FEACC0950F8290000F4004010B91C
:105140000020BDE8F883086808B90020F9E78868FE
:10515000904200D28A6886484FEACC0950F829006C
:10516000C0F3814001280BD1814810304FEACC09AF
:1051700050F82900DFF80C9200EA090000B1002283
:10518000DFF804820868D1F8049000EB0905930861
:1051900003E0D8F8000045F8040B1800A3F1010360
:1051A000F7D1D1F80490900809EB8000486002F034
:1051B00003067EB12F46744800680090002307E084
:1051C0001DF8030007F8010B4868401C48605B1C91
:1051D000B342F5D3C868904202D00020886002E054
:1051E0008868801A88601046ABE72DE9F0470746CB
:1051F0003807C00E00EBD71000EB80005D4901EBD3
:10520000800407F00F05A068E168884201D9E668CC
:1052100000E0A6685D48E90050F82100B6EB800F79
:1052200001D9BDE8F0875A48304358490839EA00A7
:1052300041F8220055481838E90050F82100C0F321
:10524000814001281DD1FFF70CFF00F0010060B183
:105250004E481838E90050F8210040F080514B4882
:105260001838EA0040F822100BE048481838E900E6
:1052700050F8210040F0005144481838EA0040F846
:10528000221042481838E90050F8210040F004414B
:105290003E481838EA0040F822102068616800EBA8
:1052A0000108394800EB0539606830446060A06847
:1052B000801BA06000206074F01C4FEA900A03E09D
:1052C00058F8040BC9F800005FEA0A00AAF1010AC5
:1052D000F6D100BFA5E708B52E480068009008BDCC
:1052E0002D480068704770B505460C462B4800787D
:1052F00000F0010008B1002070BD2848007810B10E
:105300004FF0FF30F8E72648056026480460022089
:10531000254908700320FDF7FCF901201F4908709A
:105320000020E9E710B51D48007800F0010008B939
:10533000002010BD1948007800F0020010B14FF0B5
:10534000FF30F6E70320FDF75BFA002016490870EE
:105350001249087000BFECE710B504460F4800780A
:1053600000F0010010BB4FF0FF3010BD14080050DA
:10537000000B005084C70020A0002800040100504A
:10538000000008600000F87F00100050180900506D
:1053900000000820442E0108482E0108A20F00201A
:1053A000D80F0020DC0F0020A10F002014B1022C28
:1053B0007ED12FE0FD48007800F0020008B90020FF
:1053C00010BDFA48007820F00200F8490870432028
:1053D00000F01F0201219140F54A430942F82310D1
:1053E00000BF4FF0A040806820F001004FF0A041C6
:1053F0008860F048006840F00200EE490860002034
:105400004FF0A0418863EC48006820F08000EA4932
:1054100008608FE0E548007800F0020008B1002045
:10542000CEE7E548006840F08000E3490860E248C4
:105430002038006840F08000DF49203908600120F2
:105440000BF080FEDC482038006820F08000DA494C
:10545000203908608806C06840F040008906C860AE
:1054600000BF4FF0A040006900F000400028F8D0D5
:105470004FF0A040006940F001004FF0A0410861EA
:1054800000BF4FF0A040006900F001000028F8D1F3
:105490000A200BF057FE4FF0A040806820F001007A
:1054A0004FF0A04188600846806B40F4001000E097
:1054B0003DE08863BF48006840F00200BD490860D5
:1054C0004FF0A040C06820F4705040F4105040F0FD
:1054D00080404FF0A041C86064200BF033FEB54817
:1054E000001F006840F00300B249091F0860B3487C
:1054F000C1064861B2488861AC48007840F00200BB
:10550000AA490870432000F01F020121914042097E
:10551000920002F1E022C2F8001100BF4FF0A0405B
:10552000806840F081004FF0A041886002E06FF099
:10553000030045E700BF002042E79C48007800F0E8
:10554000020010B94FF0FF3070479848007800F023
:10555000040008B10020F7E79648006820F0020038
:10556000944908604FF0A040806B40F480304FF0C9
:10557000A04188638D48007840F004008B49087092
:105580000020E1E78948007800F0020010B94FF0F0
:10559000FF3070478548007800F0040008B900200B
:1055A000F7E78448006840F00200824908604FF045
:1055B000A040806B20F480304FF0A0418863814888
:1055C000006820F008007F4908607848007820F0E3
:1055D0000400764908700020DBE77A48006820F074
:1055E00001007849086008460068704710B56F48A8
:1055F000007800F0040010B94FF0FF3010BD6D4886
:10560000006840F001006B49086005200BF09AFD2E
:105610006848006820F00100664908600020EDE756
:1056200001466248007800F0040010B94FF0FF30E6
:1056300070476048001F006861F30A105D4A121F3E
:1056400010600020F4E701465848007800F004009C
:1056500010B94FF0FF3070475B48007810B94FF039
:10566000FF30F8E70020584A1070584802680A6076
:10567000406848605448007810B14FF0FF30EAE7C6
:105680000020E8E72DE9F04706460F46924630072E
:10569000C00E00EBD61000EB80004D4901EB8005F9
:1056A0004248007800F0040018B94FF0FF30BDE820
:1056B000F087A87C00F0020010B16FF00100F6E75F
:1056C000A87C00F0010008B10020F0E706F00F040C
:1056D000C6F3C019CAF30A08032C02D94FF0FF30F1
:1056E000E5E700202860A860C5F80C80B9F1000F3C
:1056F0005BD02874A00540EA874040EA08002D49A5
:10570000FC31E20041F82200022F0ADB0846E100EA
:1057100050F8210040F080512648FC30E20040F86B
:1057200022102448FC30E10050F8210040F40041F0
:105730002048FC30E20040F82210E10050F821003F
:1057400000F0004058B11B48FC30E10050F8210047
:1057500040F080411748FC30E20040F8221030460B
:10576000FFF700FC1348FC30E10050F82100C0F3C3
:105770008140012873D14FF0A040806940F480102F
:105780004FF0A0418861FFF76CFC00F0010008B306
:105790000848FC30E10050F8210040F080510548F5
:1057A000FC30E20040F822101EE028E0A20F0020AA
:1057B00080E100E004080050343802400AFC30F078
:1057C00010380C80E00F0020EC0F0020E40F0020C8
:1057D00084C70020FE48E10050F8210040F000514D
:1057E000FB48E20040F82210F948E10050F821009F
:1057F00040F00441F648E20040F822102FE04FF05C
:10580000006040EA874040EA0800F249E20041F8BF
:105810002200022F09DB0846E10050F8210040F089
:105820008051EC48E20040F82210EA48E10050F8CC
:105830002100C0F38140012807D14FF0A0408069CA
:1058400040F400404FF0A0418861E248E10050F888
:10585000210040F40041DF48E20040F82210A87C1B
:1058600040F00100A874DA48E438006889F00101CA
:1058700004EB0112012191400843D549E439086045
:10588000002014E72DE9F04706463007C00E00EB74
:10589000D61000EB8000D04901EB8007CF4800789C
:1058A00000F0040018B94FF0FF30BDE8F087B87C75
:1058B00000F0020010B16FF00100F6E7B87C00F0D4
:1058C000010008B90020F0E74FF0000806F00F04CF
:1058D000C6F3C019BE48E438006889F0010104EB42
:1058E0000112012191408843B949E4390860B87C2C
:1058F00020F00100B8741421384609F0C7FBB9F153
:10590000000F4FD0B248E10050F82100C0F38140B1
:10591000012820D1012511E0AD48E90050F821000F
:1059200000F4004048B1AA48E90050F82100C0F353
:105930008140012801D108F101086D1C032DEBD92C
:10594000B8F1010F07D14FF0A040806920F480101A
:105950004FF0A04188619E48E10050F8210000F01E
:10596000004048B19A48E10050F8210040F08041E1
:105970009748E20040F822109548E10050F82100D5
:1059800040F000619248E20040F82210002C79D0EB
:10599000E10050F8210020F400418D48E20040F879
:1059A00022106FE08B48E10050F82100C0F38140E5
:1059B000012820D1012511E08648E90050F8210096
:1059C00000F4004048B18348E90050F82100C0F3DA
:1059D0008140012801D108F101086D1C032DEBD98C
:1059E000B8F1010F07D14FF0A040806920F40040CA
:1059F0004FF0A04188617648FC38006840F40070A0
:105A00007349FC39086000BF4FF0A040406900F0C6
:105A100080000028F8D06F48E10050F8210040F0E5
:105A200000616C48E20040F822101CB3E10050F81D
:105A3000210000F0004098B16648E10050F82100D4
:105A400040F080416348E20040F8221000BF614806
:105A50000830E10050F8210000F002000028F6D0E4
:105A60005C48E10050F8210020F400415948E20070
:105A700040F822105648FC38006840F480605449D1
:105A8000FC390860002010E72DE9F0410546884602
:105A90002807C00E00EBD51000EB80004E4901EB4B
:105AA00080064E48007800F0040018B94FF0FF302F
:105AB000BDE8F081B07C00F0010010B94FF0FF307C
:105AC000F6E7B07C00F0020010B16FF00100EFE7E4
:105AD00005F00F04C5F3C017B8F1000F59D000202E
